S00F000052415F466C61742E737265639C
S31500000000000400203D070000E1050000390700005C
S3150000001039070000390700003907000039070000DA
S31500000020000000000000000000000000390700008A
S3150000003039070000000000003907000039070000FA
S315000000400348044B834202D0034B03B11847704761
S3150000005084A2000184A2000100000000064B0749AB
S31500000060C91A891048BF0131491003D0044B0BB19E
S3150000007001481847704700BF84A2000184A200010E
S315000000800000000010B5064C237843B9FFF7D8FFEF
S31500000090044B13B10448AFF300800123237010BD55
S315000000A01C0400200000000084A2000108B5054BD6
S315000000B01BB105490548AFF30080BDE80840FFF7CE
S315000000C0CDBF00BF000000002004002084A2000174
S315000000D0002282B000921C491C481D4B019208E088
S315000000E01A6801321A600A6801320A601A68642ABC
S315000000F004DC1A68B2F57A7FF2DBFEE702680132A9
S3150000010002601A68642A15DD1A68952A12DC0268EC
S31500000110632A0FDC009A013200920268FA2AE8DDAF
S31500000120019A013201920268013A02600A68013AB4
S315000001300A60DEE71A68C72AEFDC0268632AECDC8D
S31500000140009A013A0092E8E7380400203C040020B7
S3150000015040040020022800D070470249024800F0FF
S31500000160D5B800BF9C0800004404002008B5FFF77E
S31500000170AFFF002008BD00BF2DE9F84F0388DBB1B3
S3150000018082464FF0000B4FF00109DFF8D0800024C3
S31500000190304D4FEACB07DAF8043035F8022BD9197F
S315000001A0898891420AD00134032CF4D1BAF8003080
S315000001B00BF1010B5B45EAD8BDE8F88FDB5909FA6C
S315000001C004F603F0B853B3F1807FF6B298F8BB3467
S315000001D013D0334231D1204A04F1200612F81630EA
S315000001E0DB09E0D012F81630012123F08003C82085
S315000001F002F8163000F0AEF9D5E7334211D0164AB0
S3150000020004F1200112F81130DB09CCD112F81130BB
S31500000210C82043F0800302F81130012100F09AF95A
S31500000220C1E7012000F05EFA98F8BB3401203343A1
S3150000023088F8BB3400F026FAE1E7012000F052FA14
S3150000024098F8BB34012023EA060388F8BB3400F093
S3150000025019FAC0E7400B00000030084000E00140FA
S31500000260F8B50646FFF788FFEFF31082012383F304
S315000002701088234F3B681BB92249CB704023CB70B3
S315000002803B6801333B6082F31088338823B3002137
S315000002901D4D08E01B01134445F823403288013107
S315000002A08BB29A4218D9736853F8314003EBC102F6
S315000002B09288E0034FEA1223D2B2EBD502EB031089
S315000002C055F820E024F4803C2EF4803E45F820E0EA
S315000002D01B0145F820C0DEE7EFF31082012383F30C
S315000002E010883B6813B13B68013B3B603B681BB918
S315000002F080200449CB70C87082F31088F8BD00BF17
S315000003008C040020000D08400008084008B5034B87
S3150000031003600846FFF7A4FF002008BD54524F5063
S31500000320064B074993F826001A6A51F82030C2F3A3
S3150000033002620449D3400B60704700BF00E00140F1
S31500000340000400209C040020704700BFF8B54AF264
S31500000350035001234549464AA1F8FE03A2F8043199
S31500000360B2F804319BB2002BFAD101204FF40045BC
S315000003704FF0090C3F4CDFF818E13F4EC4F804E09B
S31500000380DFF810E13D4FC4F80CE0A2F800013C4A4A
S315000003903649B06030602760A5602561626191F8DA
S315000003A02620086A54F82220364EC0F30260C24066
S315000003B0326081F8133481F8A2C091F880341BB9F9
S315000003C091F8813499074CD0284D95F88034002B4C
S315000003D03CD00022254B83F8812483F88024002317
S315000003E0224981F8323091F83C301A07FBD543F2A6
S315000003F0021000231D4A088581F82A3092F83C3005
S315000004009B06FBD50320052319494FF0F10C81F813
S315000004101C011D49116282F8263092F82630156AB1
S3150000042054F82300C5F30264E04030600123F02451
S315000004304FF42540154981F80CC00B720C7382F8F5
S31500000440303082F85230A2F8FE03F8BD0121C820F0
S3150000045085F8801400F07EF895F88034012BFBD1E6
S31500000460B7E74FF47A70FFF76FFFB8E700E0014097
S3150000047000C001400004002000700040002D310142
S3150000048000C2EB0B9C04002021120120002000403A
S3150000049000127A0000366E0138B50025284C01217D
S315000004A0C82084F8285000F055F884F8245094F8B1
S315000004B02430002BFBD194F82430214943F0020369
S315000004C084F8243091F82430C3F340009B07F9D414
S315000004D01B4A81F8220092F8223003F0FF00002B1D
S315000004E0F9D192F84030164960F3C71382F84030CC
S315000004F091F84030DB09FBD191F84200104A63F3D2
S31500000500C71081F8420092F84230DB09FBD192F81D
S3150000051044000B4963F3C71082F8440091F8443055
S31500000520C3F3C014DB09F9D1012000F0DBF8054B59
S31500000530012083F8BB44BDE8384000F0A3B800BFF3
S315000005400030084000E00140A0F101000028FBD186
S31500000550704700BF1F4B204A1B6800FB01F1934206
S3150000056013D302F1854202F5071203F5741302F65E
S31500000570834203F6FF03A2FB03231B0DA3FB0131FA
S315000005804FF0FF30F9B1FFF7DFBF4FF47A7210B4C6
S31500000590A1FB02C41148B0FBF3F34FF0FF3044B99E
S315000005A0BCFBF3FC4FEA9C0088B15DF8044BFFF7F7
S315000005B0CBBF9B00B1FBF3F1A1FB0212002AF4D1E1
S315000005C0084620B1F1E71846002BDCD170475DF8EC
S315000005D0044B70479C04002000127A0000CA9A3B24
S315000005E070B500240B4B0C4EB3F82021B3F84051E4
S315000005F0ADB2154025FA04F3DB0704D556F82430CE
S31500000600E0B203B198470134102CF3D1014BA3F8A3
S31500000610305170BD006000404C04002010B503202E
S3150000062084B000F05FF84FF0FF326FF0FF01114821
S31500000630114B04889964CDE9012203921CB16FF035
S3150000064001031A4601930C490C4B0A67C3F8802232
S31500000650029A03204A67C3F88422039A8A67C3F87A
S31500000660882200F00FF814B1054BC3F8004304B01C
S3150000067010BD00BF200C00000080004000E100E03B
S3150000068000600040EFF31081012383F31088124BC2
S3150000069033F8102092B22AB133F81020013A92B200
S315000006A023F8102033F810309BB293B910B40B4ADC
S315000006B00B4CB2F8FE3334F810009BB243F42543DA
S315000006C023EA0003A2F8FE3381F310885DF8044B99
S315000006D0704781F3108870479004002000E00140C5
S315000006E0240C000030B4EFF31081012383F310884B
S315000006F00E4A32F810309BB26BB90D4C0D4DB4F862
S31500000700FE3335F810C09BB243EA0C0343F425438D
S315000007109BB2A4F8FE3332F8103001339BB222F8B4
S31500000720103081F3108830BC704700BF9004002061
S3150000073000E00140240C000000BE704708B500F040
S3150000074035F8FFF713FDFEE7F8B5174F05463E6887
S31500000750A6B17C6806EB460604EB860602E00C347E
S31500000760B4420BD0637AAB42F9D1D4E9000200213E
S31500000770121A0C3400F07CF8B442F3D1BE6896B17C
S31500000780FC6804EB061602E01034A6420BD0637B2D
S31500000790AB42F9D1D4E90002A168121A103400F074
S315000007A06FF8A642F3D1F8BD480B00004FF4700174
S315000007B0274B284A70B50020C3F888109A60FFF7C7
S315000007C0C9FCFFF7C3FD0120FFF7C4FC224B83F3EE
S315000007D00A880020FFF7B8FFFFF7A2FDFFF75CFECF
S315000007E00320FFF77FFF00234FF6FF701B4903F13D
S315000007F008020133092B21F81200F8D10024032046
S31500000800FFF740FF0320FFF76DFF154B03205C60E9
S315000008109C60DC601C61FFF735FF0220FFF79AFC45
S315000008200120FFF791FF0F4D0F4B5B1BA3424FEAD1
S31500000830A30605DD55F8043B01349847A642F9DCCA
S31500000840FFF7ECFEBDE87040002000F00FB800BFD7
S3150000085000ED00E00000000000000020000D084050
S3150000086000000E40980C00009C0C0000704700BF72
S3150000087002440346934200D1704703F8011BF9E78F
S315000008800A44431E914200D1704710B511F8014B3E
S31500000890914203F8014FF9D110BD0000530000004A
S315000008A0A808000000000000008000000000000012
S315000008B0008000000100000000400000020000006F
S315000008C00080000003000000040000000400000097
S315000008D00040000005000000004000000600000087
S315000008E00080000007000000104000000800000023
S315000008F00400000009000000008000000E00000057
S31500000900008000000F000000000C011C0001000028
S31500000910000C011C01010000000C011C020100007A
S31500000920000C011C03010000000C011C0401000066
S31500000930000C011C05010000000C011C0601000052
S31500000940000C011C07010000000001000801000066
S315000009500000010009010000000001000A0100007A
S31500000960040000000B010000040000000F0100005D
S31500000970000001060202000000000106030200005A
S315000009800000010604020000000001060502000046
S315000009900000010000030000000001060103000042
S315000009A0040000000303000004000000040300002C
S315000009B0000C011105030000000C011106030000E4
S315000009C0000C011107030000000C011108030000D0
S315000009D0000C011109030000000C01110A030000BC
S315000009E0040000000B030000040000000C030000DC
S315000009F0040000000D0300000400000000040000D5
S31500000A00000C011701040000000C0117020400008D
S31500000A10050C0000030400000400000004040000AC
S31500000A20000C011705040000000C01170604000065
S31500000A300000011307040000000001030804000081
S31500000A401040000009040000000001060A0400002E
S31500000A50000001060B040000000001060C04000063
S31500000A60000001060D040000104000000E04000006
S31500000A70040000000F040000000001130005000040
S31500000A8000000113010500004000010405050000F7
S31500000A904000010406050000000401070B050000E4
S31500000AA0000401070C050000000C011C00060000F4
S31500000AB0000C011C01060000000C011C02060000CF
S31500000AC0000C011C0A060000040000000B060000D2
S31500000AD0040000000C060000000001050D060000E1
S31500000AE0000001050E060000000C011700070000BB
S31500000AF0000C011701070000000C01170207000097
S31500000B00000C011703070000000C01170407000082
S31500000B10000C01170507000004000000080700008C
S31500000B200400000009070000040000000A07000096
S31500000B30040000000C070000040000000D07000080
S31500000B40020403040404000004000000F00B00008B
S31500000B5008000000700B000002000000600B00009F
S31500000B60000000680000006800000020000000206F
S31500000B7000000068000000680000006000010C082A
S31500000B80000000680000006800000070000109080D
S31500000B90000000680000006800000008000102086C
S31500000BA00000006800000068400000000001010825
S31500000BB000000020000000200000006000010C037F
S31500000BC00000002000000020000000700001090362
S31500000BD000000020000000200000000800000203C2
S31500000BE0000000200000002040000000000001037B
S31500000BF000000068000000680001000800000068AE
S31500000C00000000680001000800000020000000202D
S31500000C10000000031C040020A004002000000003C4
S31500000C200000000001000200080010002000000083
S31500000C304275696C7420776974682052656E6573B5
S31500000C40617320416476616E63656420466C6578E5
S31500000C5069626C6520536F667477617265205061B6
S31500000C60636B6167652076657273696F6E20362ED9
S31500000C70332E302D626574612E300000362E332EF1
S31500000C80302D626574612E300000000000000306FE
S30900000C90F8B500BFEE
S30900000C94F8B500BFEA
S30900000C98AD000000A5
S30900000C9C85000000C9
S3090100A100FFFFFFFF58
S3090100A200FFFDFFFF59
S3090100A280F8F8FFFFE5
S7050000073DB6
